{
  "contractName": "Campaign",
  "abi": [
    {
      "inputs": [
        {
          "internalType": "address",
          "name": "creator",
          "type": "address"
        },
        {
          "internalType": "string",
          "name": "campaignName",
          "type": "string"
        },
        {
          "internalType": "string",
          "name": "campaignDescription",
          "type": "string"
        },
        {
          "internalType": "uint256",
          "name": "amountNeeded",
          "type": "uint256"
        },
        {
          "internalType": "contract GiveCoin",
          "name": "_givecoin",
          "type": "address"
        },
        {
          "internalType": "contract Escrow",
          "name": "_escrow",
          "type": "address"
        }
      ],
      "payable": false,
      "stateMutability": "nonpayable",
      "type": "constructor"
    },
    {
      "anonymous": false,
      "inputs": [
        {
          "indexed": false,
          "internalType": "uint8",
          "name": "milestoneIndex",
          "type": "uint8"
        },
        {
          "components": [
            {
              "internalType": "uint256",
              "name": "amount",
              "type": "uint256"
            },
            {
              "internalType": "bool",
              "name": "approved",
              "type": "bool"
            }
          ],
          "indexed": false,
          "internalType": "struct Campaign.Milestone",
          "name": "m",
          "type": "tuple"
        }
      ],
      "name": "MilestoneReached",
      "type": "event"
    },
    {
      "constant": true,
      "inputs": [],
      "name": "Milestones",
      "outputs": [
        {
          "internalType": "uint8",
          "name": "",
          "type": "uint8"
        }
      ],
      "payable": false,
      "stateMutability": "view",
      "type": "function"
    },
    {
      "constant": true,
      "inputs": [],
      "name": "description",
      "outputs": [
        {
          "internalType": "string",
          "name": "",
          "type": "string"
        }
      ],
      "payable": false,
      "stateMutability": "view",
      "type": "function"
    },
    {
      "constant": true,
      "inputs": [
        {
          "internalType": "address",
          "name": "",
          "type": "address"
        }
      ],
      "name": "donations",
      "outputs": [
        {
          "internalType": "uint256",
          "name": "",
          "type": "uint256"
        }
      ],
      "payable": false,
      "stateMutability": "view",
      "type": "function"
    },
    {
      "constant": true,
      "inputs": [],
      "name": "escrow",
      "outputs": [
        {
          "internalType": "contract Escrow",
          "name": "",
          "type": "address"
        }
      ],
      "payable": false,
      "stateMutability": "view",
      "type": "function"
    },
    {
      "constant": true,
      "inputs": [],
      "name": "givecoin",
      "outputs": [
        {
          "internalType": "contract GiveCoin",
          "name": "",
          "type": "address"
        }
      ],
      "payable": false,
      "stateMutability": "view",
      "type": "function"
    },
    {
      "constant": true,
      "inputs": [
        {
          "internalType": "uint8",
          "name": "",
          "type": "uint8"
        }
      ],
      "name": "milestones",
      "outputs": [
        {
          "internalType": "uint256",
          "name": "amount",
          "type": "uint256"
        },
        {
          "internalType": "bool",
          "name": "approved",
          "type": "bool"
        }
      ],
      "payable": false,
      "stateMutability": "view",
      "type": "function"
    },
    {
      "constant": true,
      "inputs": [],
      "name": "name",
      "outputs": [
        {
          "internalType": "string",
          "name": "",
          "type": "string"
        }
      ],
      "payable": false,
      "stateMutability": "view",
      "type": "function"
    },
    {
      "constant": true,
      "inputs": [],
      "name": "owner",
      "outputs": [
        {
          "internalType": "address",
          "name": "",
          "type": "address"
        }
      ],
      "payable": false,
      "stateMutability": "view",
      "type": "function"
    },
    {
      "constant": true,
      "inputs": [],
      "name": "totalAmountNeeded",
      "outputs": [
        {
          "internalType": "uint256",
          "name": "",
          "type": "uint256"
        }
      ],
      "payable": false,
      "stateMutability": "view",
      "type": "function"
    },
    {
      "constant": true,
      "inputs": [],
      "name": "totalAmountReceived",
      "outputs": [
        {
          "internalType": "uint256",
          "name": "",
          "type": "uint256"
        }
      ],
      "payable": false,
      "stateMutability": "view",
      "type": "function"
    },
    {
      "constant": false,
      "inputs": [
        {
          "internalType": "uint256",
          "name": "amount",
          "type": "uint256"
        }
      ],
      "name": "setMilestone",
      "outputs": [],
      "payable": false,
      "stateMutability": "nonpayable",
      "type": "function"
    },
    {
      "constant": false,
      "inputs": [],
      "name": "approveMilestone",
      "outputs": [],
      "payable": false,
      "stateMutability": "nonpayable",
      "type": "function"
    },
    {
      "constant": false,
      "inputs": [
        {
          "internalType": "address",
          "name": "donor",
          "type": "address"
        },
        {
          "internalType": "uint256",
          "name": "donation",
          "type": "uint256"
        }
      ],
      "name": "donated",
      "outputs": [],
      "payable": false,
      "stateMutability": "nonpayable",
      "type": "function"
    },
    {
      "constant": true,
      "inputs": [],
      "name": "getOwner",
      "outputs": [
        {
          "internalType": "address",
          "name": "",
          "type": "address"
        }
      ],
      "payable": false,
      "stateMutability": "view",
      "type": "function"
    },
    {
      "constant": true,
      "inputs": [],
      "name": "getDescription",
      "outputs": [
        {
          "internalType": "string",
          "name": "",
          "type": "string"
        }
      ],
      "payable": false,
      "stateMutability": "view",
      "type": "function"
    },
    {
      "constant": true,
      "inputs": [],
      "name": "getName",
      "outputs": [
        {
          "internalType": "string",
          "name": "",
          "type": "string"
        }
      ],
      "payable": false,
      "stateMutability": "view",
      "type": "function"
    },
    {
      "constant": true,
      "inputs": [],
      "name": "getTotalAmountNeeded",
      "outputs": [
        {
          "internalType": "uint256",
          "name": "",
          "type": "uint256"
        }
      ],
      "payable": false,
      "stateMutability": "view",
      "type": "function"
    },
    {
      "constant": true,
      "inputs": [],
      "name": "getTotalAmountReceived",
      "outputs": [
        {
          "internalType": "uint256",
          "name": "",
          "type": "uint256"
        }
      ],
      "payable": false,
      "stateMutability": "view",
      "type": "function"
    },
    {
      "constant": true,
      "inputs": [],
      "name": "getMilestones",
      "outputs": [
        {
          "internalType": "uint8",
          "name": "",
          "type": "uint8"
        }
      ],
      "payable": false,
      "stateMutability": "view",
      "type": "function"
    },
    {
      "constant": true,
      "inputs": [
        {
          "internalType": "uint8",
          "name": "index",
          "type": "uint8"
        }
      ],
      "name": "getMilestoneApprovedAt",
      "outputs": [
        {
          "internalType": "bool",
          "name": "",
          "type": "bool"
        }
      ],
      "payable": false,
      "stateMutability": "view",
      "type": "function"
    },
    {
      "constant": true,
      "inputs": [
        {
          "internalType": "uint8",
          "name": "index",
          "type": "uint8"
        }
      ],
      "name": "getMilestoneAmountAt",
      "outputs": [
        {
          "internalType": "uint256",
          "name": "",
          "type": "uint256"
        }
      ],
      "payable": false,
      "stateMutability": "view",
      "type": "function"
    },
    {
      "constant": true,
      "inputs": [],
      "name": "getCurrentMilestoneApproved",
      "outputs": [
        {
          "internalType": "bool",
          "name": "",
          "type": "bool"
        }
      ],
      "payable": false,
      "stateMutability": "view",
      "type": "function"
    },
    {
      "constant": true,
      "inputs": [],
      "name": "getCurrentMilestoneAmount",
      "outputs": [
        {
          "internalType": "uint256",
          "name": "",
          "type": "uint256"
        }
      ],
      "payable": false,
      "stateMutability": "view",
      "type": "function"
    },
    {
      "constant": true,
      "inputs": [],
      "name": "getDonatedAmount",
      "outputs": [
        {
          "internalType": "uint256",
          "name": "",
          "type": "uint256"
        }
      ],
      "payable": false,
      "stateMutability": "view",
      "type": "function"
    }
  ],
  "bytecode": "0x608060405260006004556005805461ffff191690553480156200002157600080fd5b506040516200113038038062001130833981016040819052620000449162000201565b600080546001600160a01b0319166001600160a01b038816179055845162000074906001906020880190620000d3565b5083516200008a906002906020870190620000d3565b506003929092556005805462010000600160b01b031916620100006001600160a01b0393841602179055600680546001600160a01b03191691909216179055506200039d915050565b828054600181600116156101000203166002900490600052602060002090601f016020900481019282601f106200011657805160ff191683800117855562000146565b8280016001018555821562000146579182015b828111156200014657825182559160200191906001019062000129565b506200015492915062000158565b5090565b6200017591905b808211156200015457600081556001016200015f565b90565b805162000185816200036d565b92915050565b8051620001858162000387565b600082601f830112620001aa57600080fd5b8151620001c1620001bb82620002ec565b620002c5565b91508082526020830160208301858383011115620001de57600080fd5b620001eb8382846200033a565b50505092915050565b8051620001858162000392565b60008060008060008060c087890312156200021b57600080fd5b600062000229898962000178565b96505060208701516001600160401b038111156200024657600080fd5b6200025489828a0162000198565b95505060408701516001600160401b038111156200027157600080fd5b6200027f89828a0162000198565b94505060606200029289828a01620001f4565b9350506080620002a589828a016200018b565b92505060a0620002b889828a016200018b565b9150509295509295509295565b6040518181016001600160401b0381118282101715620002e457600080fd5b604052919050565b60006001600160401b038211156200030357600080fd5b506020601f91909101601f19160190565b600062000185826200032e565b6000620001858262000314565b6001600160a01b031690565b60005b83811015620003575781810151838201526020016200033d565b8381111562000367576000848401525b50505050565b620003788162000314565b81146200038457600080fd5b50565b620003788162000321565b620003788162000175565b610d8380620003ad6000396000f3fe608060405234801561001057600080fd5b50600436106101585760003560e01c80637fb05c9e116100c3578063c547092b1161007c578063c547092b14610275578063cc6cb19a14610288578063d3ecc3651461029b578063e2fdcc17146102a3578063f06bb88c146102ab578063f670786f146102b357610158565b80637fb05c9e1461022d578063893d20e8146102355780638da5cb5b1461024a57806391f8533914610252578063a81e5d1a1461025a578063ab38e45a1461026d57610158565b80633ceb4bd0116101155780633ceb4bd0146101c95780634151b329146101de578063528ccbf4146101f35780635b27ae2e146101fb578063629e4ed0146102105780637284e4161461022557610158565b8063062c82361461015d57806306fdde031461018757806317d7de7c1461019c5780631a092541146101a45780631bd29b6c146101ac578063344612c7146101c1575b600080fd5b61017061016b366004610a09565b6102c6565b60405161017e929190610c39565b60405180910390f35b61018f6102e2565b60405161017e9190610be3565b61018f61036f565b61018f610405565b6101b4610463565b60405161017e9190610c2b565b6101b4610469565b6101dc6101d73660046109b1565b61046f565b005b6101e6610499565b60405161017e9190610bd5565b6101b46104ae565b6102036104c1565b60405161017e9190610bc7565b61021861052d565b60405161017e9190610c54565b61018f610536565b6101b461058e565b61023d6105f5565b60405161017e9190610bb9565b61023d610604565b6101dc610613565b610203610268366004610a09565b61077d565b6101b46107d9565b6101dc6102833660046109eb565b6107df565b6101b461029636600461098b565b6108dd565b6102186108ef565b6101e66108f8565b6101b4610907565b6101b46102c1366004610a09565b61090d565b6007602052600090815260409020805460019091015460ff1682565b60018054604080516020600284861615610100026000190190941693909304601f810184900484028201840190925281815292918301828280156103675780601f1061033c57610100808354040283529160200191610367565b820191906000526020600020905b81548152906001019060200180831161034a57829003601f168201915b505050505081565b60018054604080516020601f600260001961010087891615020190951694909404938401819004810282018101909252828152606093909290918301828280156103fa5780601f106103cf576101008083540402835291602001916103fa565b820191906000526020600020905b8154815290600101906020018083116103dd57829003601f168201915b505050505090505b90565b60028054604080516020601f60001961010060018716150201909416859004938401819004810282018101909252828152606093909290918301828280156103fa5780601f106103cf576101008083540402835291602001916103fa565b60045481565b60035481565b6001600160a01b039091166000908152600860205260409020805482019055600480549091019055565b6005546201000090046001600160a01b031681565b3360009081526008602052604090205490565b60055460009060ff8082166101009092041611806104dd575060005b156104ea57506000610402565b600554610100810460ff9081169116141561050757506000610402565b5060055460ff610100909104811660009081526007602052604090206001015416610402565b60055460ff1690565b6002805460408051602060018416156101000260001901909316849004601f810184900484028201840190925281815292918301828280156103675780601f1061033c57610100808354040283529160200191610367565b60055460009060ff8082166101009092041611806105aa575060005b156105b757506000610402565b600554610100810460ff908116911614156105d55750600354610402565b50600554610100900460ff16600090815260076020526040902054610402565b6000546001600160a01b031690565b6000546001600160a01b031681565b6000546001600160a01b031633146106465760405162461bcd60e51b815260040161063d90610bfb565b60405180910390fd5b600554610100900460ff16600090815260076020526040902054600454146106805760405162461bcd60e51b815260040161063d90610c0b565b6005805460ff6101009182900481166000908152600760205260408082206001908101805460ff1916821790558554858104851690910190931690930261ff001990921691909117909255600654815163027dff4760e61b815291516001600160a01b0390911692639f7fd1c0926004808201939182900301818387803b15801561070a57600080fd5b505af115801561071e573d6000803e3d6000fd5b505060055460001960ff6101009092048216019081166000908152600760205260409081902090517fab9429301e0a496acb38252a99c99ad67f80ca06a471993225546ab894ce52a094506107739350610c62565b60405180910390a1565b60055460009060ff9081169083161180610795575060005b156107a2575060006107d4565b60055460ff838116911614156107ba575060006107d4565b5060ff808216600090815260076020526040902060010154165b919050565b60035490565b6000546001600160a01b031633146108095760405162461bcd60e51b815260040161063d90610bfb565b600354811061082a5760405162461bcd60e51b815260040161063d90610c1b565b604080518082018252828152600060208083018281526005805460ff908116855260079093528584209451855590516001948501805491151560ff1992831617905581548084169095019092169390911692909217909155600654825163027dff4760e61b815292516001600160a01b0390911692639f7fd1c092600480830193919282900301818387803b1580156108c257600080fd5b505af11580156108d6573d6000803e3d6000fd5b5050505050565b60086020526000908152604090205481565b60055460ff1681565b6006546001600160a01b031681565b60045490565b60055460009060ff9081169083161180610925575060005b15610932575060006107d4565b60055460ff8381169116141561094b57506003546107d4565b5060ff81166000908152600760205260409020546107d4565b803561096f81610d17565b92915050565b803561096f81610d2e565b803561096f81610d37565b60006020828403121561099d57600080fd5b60006109a98484610964565b949350505050565b600080604083850312156109c457600080fd5b60006109d08585610964565b92505060206109e185828601610975565b9150509250929050565b6000602082840312156109fd57600080fd5b60006109a98484610975565b600060208284031215610a1b57600080fd5b60006109a98484610980565b610a3081610c90565b82525050565b610a3081610c9b565b610a3081610cac565b6000610a5382610c7d565b610a5d8185610c81565b9350610a6d818560208601610cb7565b610a7681610d0d565b9093019392505050565b6000610a8d602e83610c81565b7f4f6e6c79207468652063616d706169676e206f776e65722063616e2063616c6c81526d103a3434b990333ab731ba34b7b760911b602082015260400192915050565b6000610add602783610c81565b7f43757272656e74204d696c6573746f6e6520686173206e6f74206265656e207281526632b0b1b432b21760c91b602082015260400192915050565b6000610b26603583610c81565b7f43616e206e6f7420736574206d696c6573746f6e652061626f7665206f7220658152741c5d585b081d1bc8185b5bdd5b9d081b9959591959605a1b602082015260400192915050565b80546040830190610b8081610cfa565b610b8a8582610ba7565b50506001820154610b9a81610ce7565b6108d66020860182610a36565b610a3081610402565b610a3081610c8a565b6020810161096f8284610a27565b6020810161096f8284610a36565b6020810161096f8284610a3f565b60208082528101610bf48184610a48565b9392505050565b6020808252810161096f81610a80565b6020808252810161096f81610ad0565b6020808252810161096f81610b19565b6020810161096f8284610ba7565b60408101610c478285610ba7565b610bf46020830184610a36565b6020810161096f8284610bb0565b60608101610c708285610bb0565b610bf46020830184610b70565b5190565b90815260200190565b60ff1690565b600061096f82610ca0565b151590565b6001600160a01b031690565b600061096f82610c90565b60005b83811015610cd2578181015183820152602001610cba565b83811115610ce1576000848401525b50505050565b600061096f610cf583610402565b610c8a565b600061096f610d0883610402565b610402565b601f01601f191690565b610d2081610c90565b8114610d2b57600080fd5b50565b610d2081610402565b610d2081610c8a56fea365627a7a7231582008fd5cc49c6ef23aa26cbbe1b155229bcddbf269806181b5a19a854fade0bad96c6578706572696d656e74616cf564736f6c63430005110040",
  "source": "pragma solidity >=0.4.22 <0.9.0;\npragma experimental ABIEncoderV2;\n\nimport \"./GiveCoin.sol\";\nimport \"./Escrow.sol\";\n\ncontract Campaign {\n    address public owner;\n    string public name;\n    string public description;\n    uint256 public totalAmountNeeded;\n    uint256 public totalAmountReceived = 0;\n    uint8 public Milestones = 0;\n    uint8 private currentMilestoneIndex = 0;\n\n    GiveCoin public givecoin;\n\n    Escrow public escrow;\n\n    struct Milestone {\n        uint256 amount;\n        bool approved;\n    }\n\n    mapping(uint8 => Milestone) public milestones;\n    mapping(address => uint256) public donations;\n\n    event MilestoneReached(uint8 milestoneIndex, Milestone m);\n\n    constructor(\n        address creator,\n        string memory campaignName,\n        string memory campaignDescription,\n        uint256 amountNeeded,\n        GiveCoin _givecoin,\n        Escrow _escrow\n    ) public {\n        owner = creator;\n        name = campaignName;\n        description = campaignDescription;\n        totalAmountNeeded = amountNeeded;\n        givecoin = _givecoin;\n        escrow = _escrow;\n    }\n\n    modifier onlyOwner() {\n        require(\n            msg.sender == owner,\n            \"Only the campaign owner can call this function\"\n        );\n        _;\n    }\n\n    function setMilestone(uint256 amount) public onlyOwner {\n        require(\n            amount < totalAmountNeeded,\n            \"Can not set milestone above or equal to amount needed\"\n        );\n        milestones[Milestones] = Milestone({amount: amount, approved: false});\n        Milestones++;\n\n        escrow.issueCoin();\n    }\n\n    function approveMilestone() public onlyOwner {\n        require(\n            totalAmountReceived == milestones[currentMilestoneIndex].amount,\n            \"Current Milestone has not been reached.\"\n        );\n        milestones[currentMilestoneIndex].approved = true;\n\n        currentMilestoneIndex++;\n\n        escrow.issueCoin();\n\n        emit MilestoneReached(\n            currentMilestoneIndex - 1,\n            milestones[currentMilestoneIndex - 1]\n        );\n    }\n\n    function donated(address donor, uint256 donation) public {\n        donations[donor] += donation;\n        totalAmountReceived += donation;\n    }\n\n    // function withdraw() public onlyOwner {\n    //     require(\n    //         totalAmountReceived >= totalAmountNeeded,\n    //         \"Campaign goal not reached\"\n    //     );\n\n    //     // Transfer all collected givecoins to the campaign owner\n    //     require(\n    //         givecoin.transfer(owner, totalAmountReceived),\n    //         \"Withdrawal failed\"\n    //     );\n    // }\n    //\n    function getOwner() public view returns (address) {\n        return owner;\n    }\n\n    function getDescription() public view returns (string memory) {\n        return description;\n    }\n\n    function getName() public view returns (string memory) {\n        return name;\n    }\n\n    function getTotalAmountNeeded() public view returns (uint256) {\n        return totalAmountNeeded;\n    }\n\n    function getTotalAmountReceived() public view returns (uint256) {\n        return totalAmountReceived;\n    }\n\n    function getMilestones() public view returns (uint8) {\n        return Milestones;\n    }\n\n    function getMilestoneApprovedAt(uint8 index) public view returns (bool) {\n        if (index > Milestones || index < 0) {\n            return false;\n        } else if (index == Milestones) {\n            return false;\n        } else {\n            return milestones[index].approved;\n        }\n    }\n\n    function getMilestoneAmountAt(uint8 index) public view returns (uint256) {\n        if (index > Milestones || index < 0) {\n            return 0;\n        } else if (index == Milestones) {\n            return totalAmountNeeded;\n        } else {\n            return milestones[index].amount;\n        }\n    }\n\n    function getCurrentMilestoneApproved() public view returns (bool) {\n        if (currentMilestoneIndex > Milestones || currentMilestoneIndex < 0) {\n            return false;\n        } else if (currentMilestoneIndex == Milestones) {\n            return false;\n        } else {\n            return milestones[currentMilestoneIndex].approved;\n        }\n    }\n\n    function getCurrentMilestoneAmount() public view returns (uint256) {\n        if (currentMilestoneIndex > Milestones || currentMilestoneIndex < 0) {\n            return 0;\n        } else if (currentMilestoneIndex == Milestones) {\n            return totalAmountNeeded;\n        } else {\n            return milestones[currentMilestoneIndex].amount;\n        }\n    }\n\n    function getDonatedAmount() public view returns (uint256) {\n        return donations[msg.sender];\n    }\n}\n",
  "sourcePath": "/Users/user/pgrm/dapp/givecoin/givecoin/src/contracts/Campaign.sol",
  "compiler": {
    "name": "solc",
    "version": "0.5.17+commit.d19bba13.Emscripten.clang"
  },
  "schemaVersion": "3.4.16",
  "updatedAt": "2024-11-15T04:33:14.063Z",
  "networkType": "ethereum",
  "devdoc": {
    "methods": {}
  },
  "userdoc": {
    "methods": {}
  }
}