{
  "contractName": "Escrow",
  "abi": [
    {
      "inputs": [
        {
          "internalType": "contract GiveCoin",
          "name": "_givecoin",
          "type": "address"
        }
      ],
      "payable": false,
      "stateMutability": "nonpayable",
      "type": "constructor"
    },
    {
      "anonymous": false,
      "inputs": [
        {
          "indexed": false,
          "internalType": "contract Campaign",
          "name": "campaign",
          "type": "address"
        },
        {
          "indexed": false,
          "internalType": "uint8",
          "name": "milestone",
          "type": "uint8"
        }
      ],
      "name": "AwaitingApproval",
      "type": "event"
    },
    {
      "anonymous": false,
      "inputs": [
        {
          "indexed": true,
          "internalType": "address",
          "name": "creator",
          "type": "address"
        },
        {
          "indexed": false,
          "internalType": "string",
          "name": "name",
          "type": "string"
        },
        {
          "indexed": false,
          "internalType": "uint256",
          "name": "amountNeeded",
          "type": "uint256"
        }
      ],
      "name": "CampaignCreated",
      "type": "event"
    },
    {
      "anonymous": false,
      "inputs": [
        {
          "indexed": false,
          "internalType": "address",
          "name": "donor",
          "type": "address"
        },
        {
          "indexed": false,
          "internalType": "uint256",
          "name": "amount",
          "type": "uint256"
        }
      ],
      "name": "DonationReceived",
      "type": "event"
    },
    {
      "anonymous": false,
      "inputs": [
        {
          "indexed": false,
          "internalType": "address",
          "name": "donor",
          "type": "address"
        },
        {
          "indexed": false,
          "internalType": "uint256",
          "name": "amount",
          "type": "uint256"
        }
      ],
      "name": "OverflowReturned",
      "type": "event"
    },
    {
      "constant": true,
      "inputs": [
        {
          "internalType": "uint256",
          "name": "",
          "type": "uint256"
        }
      ],
      "name": "campaigns",
      "outputs": [
        {
          "internalType": "contract Campaign",
          "name": "",
          "type": "address"
        }
      ],
      "payable": false,
      "stateMutability": "view",
      "type": "function"
    },
    {
      "constant": true,
      "inputs": [
        {
          "internalType": "address",
          "name": "",
          "type": "address"
        },
        {
          "internalType": "address",
          "name": "",
          "type": "address"
        }
      ],
      "name": "donationInfo",
      "outputs": [
        {
          "internalType": "uint256",
          "name": "",
          "type": "uint256"
        }
      ],
      "payable": false,
      "stateMutability": "view",
      "type": "function"
    },
    {
      "constant": true,
      "inputs": [
        {
          "internalType": "uint256",
          "name": "",
          "type": "uint256"
        }
      ],
      "name": "donators",
      "outputs": [
        {
          "internalType": "address",
          "name": "",
          "type": "address"
        }
      ],
      "payable": false,
      "stateMutability": "view",
      "type": "function"
    },
    {
      "constant": true,
      "inputs": [],
      "name": "givecoin",
      "outputs": [
        {
          "internalType": "contract GiveCoin",
          "name": "",
          "type": "address"
        }
      ],
      "payable": false,
      "stateMutability": "view",
      "type": "function"
    },
    {
      "constant": true,
      "inputs": [
        {
          "internalType": "address",
          "name": "",
          "type": "address"
        }
      ],
      "name": "hasDonated",
      "outputs": [
        {
          "internalType": "bool",
          "name": "",
          "type": "bool"
        }
      ],
      "payable": false,
      "stateMutability": "view",
      "type": "function"
    },
    {
      "constant": true,
      "inputs": [
        {
          "internalType": "address",
          "name": "",
          "type": "address"
        }
      ],
      "name": "isDonating",
      "outputs": [
        {
          "internalType": "bool",
          "name": "",
          "type": "bool"
        }
      ],
      "payable": false,
      "stateMutability": "view",
      "type": "function"
    },
    {
      "constant": true,
      "inputs": [],
      "name": "owner",
      "outputs": [
        {
          "internalType": "address",
          "name": "",
          "type": "address"
        }
      ],
      "payable": false,
      "stateMutability": "view",
      "type": "function"
    },
    {
      "constant": false,
      "inputs": [
        {
          "internalType": "string",
          "name": "name",
          "type": "string"
        },
        {
          "internalType": "string",
          "name": "description",
          "type": "string"
        },
        {
          "internalType": "uint256",
          "name": "amountNeeded",
          "type": "uint256"
        }
      ],
      "name": "createCampaign",
      "outputs": [],
      "payable": false,
      "stateMutability": "nonpayable",
      "type": "function"
    },
    {
      "constant": true,
      "inputs": [],
      "name": "getCampaigns",
      "outputs": [
        {
          "internalType": "contract Campaign[]",
          "name": "",
          "type": "address[]"
        }
      ],
      "payable": false,
      "stateMutability": "view",
      "type": "function"
    },
    {
      "constant": true,
      "inputs": [
        {
          "internalType": "address",
          "name": "account",
          "type": "address"
        },
        {
          "internalType": "address",
          "name": "campaign",
          "type": "address"
        }
      ],
      "name": "getDonationInfo",
      "outputs": [
        {
          "internalType": "uint256",
          "name": "",
          "type": "uint256"
        }
      ],
      "payable": false,
      "stateMutability": "view",
      "type": "function"
    },
    {
      "constant": true,
      "inputs": [
        {
          "internalType": "address",
          "name": "account",
          "type": "address"
        }
      ],
      "name": "getAllDonationsForAccount",
      "outputs": [
        {
          "internalType": "uint256[]",
          "name": "",
          "type": "uint256[]"
        },
        {
          "internalType": "address[]",
          "name": "",
          "type": "address[]"
        }
      ],
      "payable": false,
      "stateMutability": "view",
      "type": "function"
    },
    {
      "constant": false,
      "inputs": [
        {
          "internalType": "uint256",
          "name": "amount",
          "type": "uint256"
        },
        {
          "internalType": "contract Campaign",
          "name": "campaign",
          "type": "address"
        }
      ],
      "name": "donateCoin",
      "outputs": [],
      "payable": false,
      "stateMutability": "nonpayable",
      "type": "function"
    },
    {
      "constant": false,
      "inputs": [],
      "name": "issueCoin",
      "outputs": [],
      "payable": false,
      "stateMutability": "nonpayable",
      "type": "function"
    }
  ],
  "bytecode": "0x608060405234801561001057600080fd5b50604051612bed380380612bed8339818101604052602081101561003357600080fd5b5051600180546001600160a01b039092166001600160a01b03199283161790556002805490911633179055612b808061006d6000396000f3fe60806040523480156200001157600080fd5b5060043610620000e25760003560e01c8063a6b036331162000099578063c4c87c2f116200006f578063c4c87c2f1462000305578063c637b5341462000334578063d4009873146200035d578063ffa56a57146200038e57620000e2565b8063a6b036331462000246578063ac62f56614620002a2578063c368bdae14620002c257620000e2565b8063141961bc14620000e757806317294a1114620001235780632eccc6a114620001605780634151b32914620002265780638da5cb5b14620002305780639f7fd1c0146200023a575b600080fd5b6200010760048036036020811015620000ff57600080fd5b5035620004c6565b604080516001600160a01b039092168252519081900360200190f35b6200014c600480360360208110156200013b57600080fd5b50356001600160a01b0316620004ee565b604080519115158252519081900360200190f35b62000189600480360360208110156200017857600080fd5b50356001600160a01b031662000503565b604051808060200180602001838103835285818151815260200191508051906020019060200280838360005b83811015620001cf578181015183820152602001620001b5565b50505050905001838103825284818151815260200191508051906020019060200280838360005b8381101562000210578181015183820152602001620001f6565b5050505090500194505050505060405180910390f35b620001076200064b565b620001076200065a565b6200024462000669565b005b620002506200137b565b60408051602080825283518183015283519192839290830191858101910280838360005b838110156200028e57818101518382015260200162000274565b505050509050019250505060405180910390f35b6200010760048036036020811015620002ba57600080fd5b5035620013df565b620002f360048036036040811015620002da57600080fd5b506001600160a01b0381358116916020013516620013ed565b60408051918252519081900360200190f35b62000244600480360360408110156200031d57600080fd5b50803590602001356001600160a01b031662001418565b6200014c600480360360208110156200034c57600080fd5b50356001600160a01b0316620016de565b620002f3600480360360408110156200037557600080fd5b506001600160a01b0381358116916020013516620016f3565b6200024460048036036060811015620003a657600080fd5b810190602081018135640100000000811115620003c257600080fd5b820183602082011115620003d557600080fd5b80359060200191846001830284011164010000000083111715620003f857600080fd5b91908080601f01602080910402602001604051908101604052809392919081815260200183838082843760009201919091525092959493602081019350359150506401000000008111156200044c57600080fd5b8201836020820111156200045f57600080fd5b803590602001918460018302840111640100000000831117156200048257600080fd5b91908080601f016020809104026020016040519081016040528093929190818152602001838380828437600092019190915250929550509135925062001710915050565b60008181548110620004d457fe5b6000918252602090912001546001600160a01b0316905081565b60066020526000908152604090205460ff1681565b6000546040805182815260208084028201019091526060918291829082801562000537578160200160208202803883390190505b50905060608260405190808252806020026020018201604052801562000567578160200160208202803883390190505b50905060005b838110156200063f5760008082815481106200058557fe5b60009182526020808320909101546001600160a01b038b8116845260058352604080852091909216808552925290912054909150819060ff161562000634576001600160a01b03808a166000908152600460209081526040808320938516835292905220548551869085908110620005f957fe5b602002602001018181525050808484815181106200061357fe5b60200260200101906001600160a01b031690816001600160a01b0316815250505b50506001016200056d565b50909350915050915091565b6001546001600160a01b031681565b6002546001600160a01b031681565b60005b60035481101562001378576000600382815481106200068757fe5b60009182526020808320909101546001600160a01b0316808352600790915260408220805460ff1916905591505b6000548110156200136d576000808281548110620006cf57fe5b60009182526020808320909101546001600160a01b038681168452600483526040808520919092168085529252909120549091508190801562001361576000836001600160a01b0316638da5cb5b6040518163ffffffff1660e01b815260040160206040518083038186803b1580156200074857600080fd5b505afa1580156200075d573d6000803e3d6000fd5b505050506040513d60208110156200077457600080fd5b5051604080516306f4a6db60e21b815290519192506001600160a01b03861691631bd29b6c91600480820192602092909190829003018186803b158015620007bb57600080fd5b505afa158015620007d0573d6000803e3d6000fd5b505050506040513d6020811015620007e757600080fd5b50516040805163344612c760e01b815290516001600160a01b0387169163344612c7916004808301926020929190829003018186803b1580156200082a57600080fd5b505afa1580156200083f573d6000803e3d6000fd5b505050506040513d60208110156200085657600080fd5b5051141562000908576001600160a01b03808716600081815260046020818152604080842089871685528252808420849055600154815163a9059cbb60e01b8152938401959095526024830188905251939094169363a9059cbb9360448084019492939192918390030190829087803b158015620008d357600080fd5b505af1158015620008e8573d6000803e3d6000fd5b505050506040513d6020811015620008ff57600080fd5b506200135f9050565b836001600160a01b031663344612c76040518163ffffffff1660e01b815260040160206040518083038186803b1580156200094257600080fd5b505afa15801562000957573d6000803e3d6000fd5b505050506040513d60208110156200096e57600080fd5b5051604080516306f4a6db60e21b8152905184916001600160a01b03881691631bd29b6c91600480820192602092909190829003018186803b158015620009b457600080fd5b505afa158015620009c9573d6000803e3d6000fd5b505050506040513d6020811015620009e057600080fd5b505101111562000ce2576000846001600160a01b031663344612c76040518163ffffffff1660e01b815260040160206040518083038186803b15801562000a2657600080fd5b505afa15801562000a3b573d6000803e3d6000fd5b505050506040513d602081101562000a5257600080fd5b5051604080516306f4a6db60e21b8152905185916001600160a01b03891691631bd29b6c91600480820192602092909190829003018186803b15801562000a9857600080fd5b505afa15801562000aad573d6000803e3d6000fd5b505050506040513d602081101562000ac457600080fd5b50516001600160a01b03808b1660008181526004602081815260408084208d8716855290915280832083905580516303ceb4bd60e41b815291820193909352949093019490940380880360248501529351939450881692633ceb4bd092604480820193929182900301818387803b15801562000b3f57600080fd5b505af115801562000b54573d6000803e3d6000fd5b50506001546040805163a9059cbb60e01b81526001600160a01b0387811660048301528689036024830152915191909216935063a9059cbb925060448083019260209291908290030181600087803b15801562000bb057600080fd5b505af115801562000bc5573d6000803e3d6000fd5b505050506040513d602081101562000bdc57600080fd5b50506001546040805163a9059cbb60e01b81526001600160a01b038a81166004830152602482018590529151919092169163a9059cbb9160448083019260209291908290030181600087803b15801562000c3557600080fd5b505af115801562000c4a573d6000803e3d6000fd5b505050506040513d602081101562000c6157600080fd5b5050604080516001600160a01b03891681528285036020820152815160008051602062002b2c833981519152929181900390910190a1604080516001600160a01b03891681526020810183905281517fe7dd4f80f6ff68561913383e28071b6be913a089a10d8aaef764198aab0d1e9d929181900390910190a1506200135f565b836001600160a01b031663d3ecc3656040518163ffffffff1660e01b815260040160206040518083038186803b15801562000d1c57600080fd5b505afa15801562000d31573d6000803e3d6000fd5b505050506040513d602081101562000d4857600080fd5b505160ff1662000e97576001600160a01b038087166000818152600460208181526040808420898716855290915280832083905580516303ceb4bd60e41b81529182019390935260248101869052915192871692633ceb4bd092604480820193929182900301818387803b15801562000dc057600080fd5b505af115801562000dd5573d6000803e3d6000fd5b50506001546040805163a9059cbb60e01b81526001600160a01b03868116600483015260248201889052915191909216935063a9059cbb925060448083019260209291908290030181600087803b15801562000e3057600080fd5b505af115801562000e45573d6000803e3d6000fd5b505050506040513d602081101562000e5c57600080fd5b5050604080516001600160a01b038816815260208101849052815160008051602062002b2c833981519152929181900390910190a16200135f565b836001600160a01b0316635b27ae2e6040518163ffffffff1660e01b815260040160206040518083038186803b15801562000ed157600080fd5b505afa15801562000ee6573d6000803e3d6000fd5b505050506040513d602081101562000efd57600080fd5b50511562000f3d5760405162461bcd60e51b815260040180806020018281038252607381526020018062002a966073913960800191505060405180910390fd5b6000846001600160a01b0316631bd29b6c6040518163ffffffff1660e01b815260040160206040518083038186803b15801562000f7957600080fd5b505afa15801562000f8e573d6000803e3d6000fd5b505050506040513d602081101562000fa557600080fd5b505160408051633fd82e4f60e11b815290516001600160a01b03881691637fb05c9e916004808301926020929190829003018186803b15801562000fe857600080fd5b505afa15801562000ffd573d6000803e3d6000fd5b505050506040513d60208110156200101457600080fd5b5051039050808311156200121d576001600160a01b0380881660008181526004602081815260408084208a871685529091528083208689039081905581516303ceb4bd60e41b8152928301949094528388036024830152519293891692633ceb4bd09260448084019391929182900301818387803b1580156200109657600080fd5b505af1158015620010ab573d6000803e3d6000fd5b50506001546040805163a9059cbb60e01b81526001600160a01b038881166004830152868a036024830152915191909216935063a9059cbb925060448083019260209291908290030181600087803b1580156200110757600080fd5b505af11580156200111c573d6000803e3d6000fd5b505050506040513d60208110156200113357600080fd5b5050604080516001600160a01b038a1681528286036020820152815160008051602062002b2c833981519152929181900390910190a17e49a5cfcc93c423ab3a6c3883b935d2f510f6753b596798105be632005150be86876001600160a01b031663d3ecc3656040518163ffffffff1660e01b815260040160206040518083038186803b158015620011c457600080fd5b505afa158015620011d9573d6000803e3d6000fd5b505050506040513d6020811015620011f057600080fd5b5051604080516001600160a01b03909316835260ff90911660208301528051918290030190a1506200135d565b6001600160a01b0380881660008181526004602081815260408084208a8716855290915280832083905580516303ceb4bd60e41b81529182019390935260248101879052915192881692633ceb4bd092604480820193929182900301818387803b1580156200128b57600080fd5b505af1158015620012a0573d6000803e3d6000fd5b50506001546040805163a9059cbb60e01b81526001600160a01b03878116600483015260248201899052915191909216935063a9059cbb925060448083019260209291908290030181600087803b158015620012fb57600080fd5b505af115801562001310573d6000803e3d6000fd5b505050506040513d60208110156200132757600080fd5b5050604080516001600160a01b038916815260208101859052815160008051602062002b2c833981519152929181900390910190a15b505b505b505050600101620006b5565b50506001016200066c565b50565b60606000805480602002602001604051908101604052809291908181526020018280548015620013d557602002820191906000526020600020905b81546001600160a01b03168152600190910190602001808311620013b6575b5050505050905090565b60038181548110620004d457fe5b6001600160a01b03918216600090815260046020908152604080832093909416825291909152205490565b6000821162001463576040805162461bcd60e51b81526020600482015260126024820152710416d6f756e742063616e6e6f7420626520360741b604482015290519081900360640190fd5b6001600160a01b038116620014bf576040805162461bcd60e51b815260206004820181905260248201527f43616d706169676e2063616e206e6f742062652061206e756c6c2076616c7565604482015290519081900360640190fd5b336001600160a01b0316816001600160a01b0316638da5cb5b6040518163ffffffff1660e01b815260040160206040518083038186803b1580156200150357600080fd5b505afa15801562001518573d6000803e3d6000fd5b505050506040513d60208110156200152f57600080fd5b50516001600160a01b03161415620015795760405162461bcd60e51b815260040180806020018281038252602381526020018062002b096023913960400191505060405180910390fd5b600154604080516323b872dd60e01b81523360048201523060248201526044810185905290516001600160a01b03909216916323b872dd916064808201926020929091908290030181600087803b158015620015d457600080fd5b505af1158015620015e9573d6000803e3d6000fd5b505050506040513d60208110156200160057600080fd5b50503360008181526004602090815260408083206001600160a01b038616808552908352818420805488019055848452600583528184209084528252808320805460ff1916600117905592825260069052205460ff16620016b6576003805460018181019092557fc2575a0e9e593c00f959f8c92f12db2869c3395a3b0502d05e2516446f71f85b0180546001600160a01b031916339081179091556000908152600660205260409020805460ff191690911790555b336000908152600760205260409020805460ff19166001179055620016da62000669565b5050565b60076020526000908152604090205460ff1681565b600460209081526000928352604080842090915290825290205481565b600033848484600160009054906101000a90046001600160a01b0316306040516200173b9062001957565b6001600160a01b038088168252606082018590528381166080830152821660a082015260c060208083018281528851928401929092528751604084019160e0850191908a019080838360005b83811015620017a157818101518382015260200162001787565b50505050905090810190601f168015620017cf5780820380516001836020036101000a031916815260200191505b50838103825287518152875160209182019189019080838360005b8381101562001804578181015183820152602001620017ea565b50505050905090810190601f168015620018325780820380516001836020036101000a031916815260200191505b5098505050505050505050604051809103906000f0801580156200185a573d6000803e3d6000fd5b50600080546001810182558180527f290decd9548b62a8d60345a988386fc84ba6bc95484008f6362f93160ef3e5630180546001600160a01b0319166001600160a01b038416179055604080516020808201879052828252885192820192909252875193945033937ff645d5231257014315ed789c411b77c7e67b0405fd43321cea8589246e5f11c393899388939283926060840192870191908190849084905b8381101562001915578181015183820152602001620018fb565b50505050905090810190601f168015620019435780820380516001836020036101000a031916815260200191505b50935050505060405180910390a250505050565b61113080620019668339019056fe608060405260006004556005805461ffff191690553480156200002157600080fd5b506040516200113038038062001130833981016040819052620000449162000201565b600080546001600160a01b0319166001600160a01b038816179055845162000074906001906020880190620000d3565b5083516200008a906002906020870190620000d3565b506003929092556005805462010000600160b01b031916620100006001600160a01b0393841602179055600680546001600160a01b03191691909216179055506200039d915050565b828054600181600116156101000203166002900490600052602060002090601f016020900481019282601f106200011657805160ff191683800117855562000146565b8280016001018555821562000146579182015b828111156200014657825182559160200191906001019062000129565b506200015492915062000158565b5090565b6200017591905b808211156200015457600081556001016200015f565b90565b805162000185816200036d565b92915050565b8051620001858162000387565b600082601f830112620001aa57600080fd5b8151620001c1620001bb82620002ec565b620002c5565b91508082526020830160208301858383011115620001de57600080fd5b620001eb8382846200033a565b50505092915050565b8051620001858162000392565b60008060008060008060c087890312156200021b57600080fd5b600062000229898962000178565b96505060208701516001600160401b038111156200024657600080fd5b6200025489828a0162000198565b95505060408701516001600160401b038111156200027157600080fd5b6200027f89828a0162000198565b94505060606200029289828a01620001f4565b9350506080620002a589828a016200018b565b92505060a0620002b889828a016200018b565b9150509295509295509295565b6040518181016001600160401b0381118282101715620002e457600080fd5b604052919050565b60006001600160401b038211156200030357600080fd5b506020601f91909101601f19160190565b600062000185826200032e565b6000620001858262000314565b6001600160a01b031690565b60005b83811015620003575781810151838201526020016200033d565b8381111562000367576000848401525b50505050565b620003788162000314565b81146200038457600080fd5b50565b620003788162000321565b620003788162000175565b610d8380620003ad6000396000f3fe608060405234801561001057600080fd5b50600436106101585760003560e01c80637fb05c9e116100c3578063c547092b1161007c578063c547092b14610275578063cc6cb19a14610288578063d3ecc3651461029b578063e2fdcc17146102a3578063f06bb88c146102ab578063f670786f146102b357610158565b80637fb05c9e1461022d578063893d20e8146102355780638da5cb5b1461024a57806391f8533914610252578063a81e5d1a1461025a578063ab38e45a1461026d57610158565b80633ceb4bd0116101155780633ceb4bd0146101c95780634151b329146101de578063528ccbf4146101f35780635b27ae2e146101fb578063629e4ed0146102105780637284e4161461022557610158565b8063062c82361461015d57806306fdde031461018757806317d7de7c1461019c5780631a092541146101a45780631bd29b6c146101ac578063344612c7146101c1575b600080fd5b61017061016b366004610a09565b6102c6565b60405161017e929190610c39565b60405180910390f35b61018f6102e2565b60405161017e9190610be3565b61018f61036f565b61018f610405565b6101b4610463565b60405161017e9190610c2b565b6101b4610469565b6101dc6101d73660046109b1565b61046f565b005b6101e6610499565b60405161017e9190610bd5565b6101b46104ae565b6102036104c1565b60405161017e9190610bc7565b61021861052d565b60405161017e9190610c54565b61018f610536565b6101b461058e565b61023d6105f5565b60405161017e9190610bb9565b61023d610604565b6101dc610613565b610203610268366004610a09565b61077d565b6101b46107d9565b6101dc6102833660046109eb565b6107df565b6101b461029636600461098b565b6108dd565b6102186108ef565b6101e66108f8565b6101b4610907565b6101b46102c1366004610a09565b61090d565b6007602052600090815260409020805460019091015460ff1682565b60018054604080516020600284861615610100026000190190941693909304601f810184900484028201840190925281815292918301828280156103675780601f1061033c57610100808354040283529160200191610367565b820191906000526020600020905b81548152906001019060200180831161034a57829003601f168201915b505050505081565b60018054604080516020601f600260001961010087891615020190951694909404938401819004810282018101909252828152606093909290918301828280156103fa5780601f106103cf576101008083540402835291602001916103fa565b820191906000526020600020905b8154815290600101906020018083116103dd57829003601f168201915b505050505090505b90565b60028054604080516020601f60001961010060018716150201909416859004938401819004810282018101909252828152606093909290918301828280156103fa5780601f106103cf576101008083540402835291602001916103fa565b60045481565b60035481565b6001600160a01b039091166000908152600860205260409020805482019055600480549091019055565b6005546201000090046001600160a01b031681565b3360009081526008602052604090205490565b60055460009060ff8082166101009092041611806104dd575060005b156104ea57506000610402565b600554610100810460ff9081169116141561050757506000610402565b5060055460ff610100909104811660009081526007602052604090206001015416610402565b60055460ff1690565b6002805460408051602060018416156101000260001901909316849004601f810184900484028201840190925281815292918301828280156103675780601f1061033c57610100808354040283529160200191610367565b60055460009060ff8082166101009092041611806105aa575060005b156105b757506000610402565b600554610100810460ff908116911614156105d55750600354610402565b50600554610100900460ff16600090815260076020526040902054610402565b6000546001600160a01b031690565b6000546001600160a01b031681565b6000546001600160a01b031633146106465760405162461bcd60e51b815260040161063d90610bfb565b60405180910390fd5b600554610100900460ff16600090815260076020526040902054600454146106805760405162461bcd60e51b815260040161063d90610c0b565b6005805460ff6101009182900481166000908152600760205260408082206001908101805460ff1916821790558554858104851690910190931690930261ff001990921691909117909255600654815163027dff4760e61b815291516001600160a01b0390911692639f7fd1c0926004808201939182900301818387803b15801561070a57600080fd5b505af115801561071e573d6000803e3d6000fd5b505060055460001960ff6101009092048216019081166000908152600760205260409081902090517fab9429301e0a496acb38252a99c99ad67f80ca06a471993225546ab894ce52a094506107739350610c62565b60405180910390a1565b60055460009060ff9081169083161180610795575060005b156107a2575060006107d4565b60055460ff838116911614156107ba575060006107d4565b5060ff808216600090815260076020526040902060010154165b919050565b60035490565b6000546001600160a01b031633146108095760405162461bcd60e51b815260040161063d90610bfb565b600354811061082a5760405162461bcd60e51b815260040161063d90610c1b565b604080518082018252828152600060208083018281526005805460ff908116855260079093528584209451855590516001948501805491151560ff1992831617905581548084169095019092169390911692909217909155600654825163027dff4760e61b815292516001600160a01b0390911692639f7fd1c092600480830193919282900301818387803b1580156108c257600080fd5b505af11580156108d6573d6000803e3d6000fd5b5050505050565b60086020526000908152604090205481565b60055460ff1681565b6006546001600160a01b031681565b60045490565b60055460009060ff9081169083161180610925575060005b15610932575060006107d4565b60055460ff8381169116141561094b57506003546107d4565b5060ff81166000908152600760205260409020546107d4565b803561096f81610d17565b92915050565b803561096f81610d2e565b803561096f81610d37565b60006020828403121561099d57600080fd5b60006109a98484610964565b949350505050565b600080604083850312156109c457600080fd5b60006109d08585610964565b92505060206109e185828601610975565b9150509250929050565b6000602082840312156109fd57600080fd5b60006109a98484610975565b600060208284031215610a1b57600080fd5b60006109a98484610980565b610a3081610c90565b82525050565b610a3081610c9b565b610a3081610cac565b6000610a5382610c7d565b610a5d8185610c81565b9350610a6d818560208601610cb7565b610a7681610d0d565b9093019392505050565b6000610a8d602e83610c81565b7f4f6e6c79207468652063616d706169676e206f776e65722063616e2063616c6c81526d103a3434b990333ab731ba34b7b760911b602082015260400192915050565b6000610add602783610c81565b7f43757272656e74204d696c6573746f6e6520686173206e6f74206265656e207281526632b0b1b432b21760c91b602082015260400192915050565b6000610b26603583610c81565b7f43616e206e6f7420736574206d696c6573746f6e652061626f7665206f7220658152741c5d585b081d1bc8185b5bdd5b9d081b9959591959605a1b602082015260400192915050565b80546040830190610b8081610cfa565b610b8a8582610ba7565b50506001820154610b9a81610ce7565b6108d66020860182610a36565b610a3081610402565b610a3081610c8a565b6020810161096f8284610a27565b6020810161096f8284610a36565b6020810161096f8284610a3f565b60208082528101610bf48184610a48565b9392505050565b6020808252810161096f81610a80565b6020808252810161096f81610ad0565b6020808252810161096f81610b19565b6020810161096f8284610ba7565b60408101610c478285610ba7565b610bf46020830184610a36565b6020810161096f8284610bb0565b60608101610c708285610bb0565b610bf46020830184610b70565b5190565b90815260200190565b60ff1690565b600061096f82610ca0565b151590565b6001600160a01b031690565b600061096f82610c90565b60005b83811015610cd2578181015183820152602001610cba565b83811115610ce1576000848401525b50505050565b600061096f610cf583610402565b610c8a565b600061096f610d0883610402565b610402565b601f01601f191690565b610d2081610c90565b8114610d2b57600080fd5b50565b610d2081610402565b610d2081610c8a56fea365627a7a7231582008fd5cc49c6ef23aa26cbbe1b155229bcddbf269806181b5a19a854fade0bad96c6578706572696d656e74616cf564736f6c6343000511004043757272656e74204d696c6573746f6e6520686173206265656e2066756c66696c6c656420627574206e6f7420617070726f7665642e20506c6561736520646f6e617465206f6e6365206f7267616e697a6174696f6e2068617320636f6d706c6574656420746865206d696c6573746f6e652e43616e206e6f7420646f6e61746520746f20796f7572206f776e2063616d706169676e264f630d9efa0d07053a31163641d9fcc0adafc9d9e76f1c37c2ce3a558d2c52a265627a7a72315820c1e01d276cd24f59ce0077f57e52834b534a1c1016855b3baae05116d36451d764736f6c63430005110032",
  "source": "pragma solidity >=0.4.22 <0.9.0;\n\nimport \"./Campaign.sol\";\nimport \"./GiveCoin.sol\";\n\ncontract Escrow {\n    Campaign[] public campaigns;\n    GiveCoin public givecoin;\n    address public owner;\n\n    event CampaignCreated(\n        address indexed creator,\n        string name,\n        uint256 amountNeeded\n    );\n\n    event DonationReceived(address donor, uint256 amount);\n    event OverflowReturned(address donor, uint256 amount);\n    event AwaitingApproval(Campaign campaign, uint8 milestone);\n\n    constructor(GiveCoin _givecoin) public {\n        givecoin = _givecoin;\n        owner = msg.sender;\n    }\n\n    address[] public donators;\n\n    // Donation info as mapping: donor => (campaign => donation amount)\n    mapping(address => mapping(address => uint256)) public donationInfo;\n    mapping(address => mapping(address => bool)) private donatedChecker;\n    mapping(address => bool) public hasDonated;\n    mapping(address => bool) public isDonating;\n\n    function createCampaign(\n        string memory name,\n        string memory description,\n        uint256 amountNeeded\n    ) public {\n        Campaign newCampaign = new Campaign(\n            msg.sender,\n            name,\n            description,\n            amountNeeded,\n            givecoin,\n            this\n        );\n        campaigns.push(newCampaign);\n\n        emit CampaignCreated(msg.sender, name, amountNeeded);\n    }\n\n    function getCampaigns() public view returns (Campaign[] memory) {\n        return campaigns;\n    }\n\n    function getDonationInfo(\n        address account,\n        address campaign\n    ) public view returns (uint256) {\n        return donationInfo[account][campaign];\n    }\n\n    function getAllDonationsForAccount(\n        address account\n    ) public view returns (uint256[] memory, address[] memory) {\n        uint256 length = campaigns.length;\n        uint256[] memory donations = new uint256[](length);\n        address[] memory campaignAddresses = new address[](length);\n\n        for (uint256 i = 0; i < length; i++) {\n            Campaign campaign = campaigns[i];\n            address campaignAddr = address(campaign);\n            if (donatedChecker[account][campaignAddr]) {\n                donations[i] = donationInfo[account][campaignAddr];\n                campaignAddresses[i] = campaignAddr;\n            }\n        }\n        return (donations, campaignAddresses);\n    }\n\n    function donateCoin(uint256 amount, Campaign campaign) public {\n        require(amount > 0, \"Amount cannot be 0\");\n\n        require(\n            address(campaign) != address(0),\n            \"Campaign can not be a null value\"\n        );\n\n        require(\n            campaign.owner() != msg.sender,\n            \"Can not donate to your own campaign\"\n        );\n\n        // Transfer GiveCoin tokens from the donor to the contract\n        givecoin.transferFrom(msg.sender, address(this), amount);\n\n        // Update the donation amount for this campaign\n        donationInfo[msg.sender][address(campaign)] += amount;\n        donatedChecker[msg.sender][address(campaign)] = true;\n\n        // Track donors\n        if (!hasDonated[msg.sender]) {\n            donators.push(msg.sender);\n            hasDonated[msg.sender] = true;\n        }\n        isDonating[msg.sender] = true;\n\n        issueCoin();\n    }\n\n    function issueCoin() public {\n        // require(msg.sender == owner, \"caller must be the owner\");\n\n        for (uint i = 0; i < donators.length; i++) {\n            address donator = donators[i];\n            isDonating[donator] = false;\n\n            // Iterate through each campaign for this donator\n            for (uint j = 0; j < campaigns.length; j++) {\n                Campaign campaign = campaigns[j];\n                address campaignAddr = address(campaign);\n\n                uint256 donation = donationInfo[donator][campaignAddr];\n\n                if (donation > 0) {\n                    address recipient = campaign.owner();\n\n                    // Check if donation needs to be handled for overflow, completion, etc.\n                    if (\n                        campaign.totalAmountNeeded() ==\n                        campaign.totalAmountReceived()\n                    ) {\n                        donationInfo[donator][campaignAddr] = 0;\n                        givecoin.transfer(donator, donation);\n                    } else if (\n                        (campaign.totalAmountReceived() + donation) >\n                        campaign.totalAmountNeeded()\n                    ) {\n                        uint256 overflow = campaign.totalAmountReceived() +\n                            donation -\n                            campaign.totalAmountNeeded();\n                        donationInfo[donator][campaignAddr] = 0;\n                        campaign.donated(donator, donation - overflow);\n                        givecoin.transfer(recipient, donation - overflow);\n                        givecoin.transfer(donator, overflow);\n\n                        emit DonationReceived(donator, donation - overflow);\n                        emit OverflowReturned(donator, overflow);\n                    } else {\n                        if (campaign.Milestones() == 0) {\n                            donationInfo[donator][campaignAddr] = 0;\n                            campaign.donated(donator, donation);\n                            givecoin.transfer(recipient, donation);\n\n                            emit DonationReceived(donator, donation);\n                        } else {\n                            require(\n                                !campaign.getCurrentMilestoneApproved(),\n                                \"Current Milestone has been fulfilled but not approved. Please donate once organization has completed the milestone.\"\n                            );\n\n                            uint256 remainingForMilestone = campaign\n                                .getCurrentMilestoneAmount() -\n                                campaign.totalAmountReceived();\n                            if (donation > remainingForMilestone) {\n                                uint256 overflow = donation -\n                                    remainingForMilestone;\n                                donationInfo[donator][campaignAddr] = overflow;\n                                campaign.donated(donator, donation - overflow);\n                                givecoin.transfer(\n                                    recipient,\n                                    donation - overflow\n                                );\n\n                                emit DonationReceived(\n                                    donator,\n                                    donation - overflow\n                                );\n                                emit AwaitingApproval(\n                                    campaign,\n                                    campaign.Milestones()\n                                );\n                            } else {\n                                donationInfo[donator][campaignAddr] = 0;\n                                campaign.donated(donator, donation);\n                                givecoin.transfer(recipient, donation);\n\n                                emit DonationReceived(donator, donation);\n                            }\n                        }\n                    }\n                }\n            }\n        }\n    }\n}\n",
  "sourcePath": "/Users/user/pgrm/dapp/givecoin/givecoin/src/contracts/Escrow.sol",
  "compiler": {
    "name": "solc",
    "version": "0.5.17+commit.d19bba13.Emscripten.clang"
  },
  "schemaVersion": "3.4.16",
  "updatedAt": "2024-11-15T04:33:14.058Z",
  "networkType": "ethereum",
  "devdoc": {
    "methods": {}
  },
  "userdoc": {
    "methods": {}
  }
}